:100000000C9434000C943E000C943E000C943E0082
:100010000C943E000C943E000C943E000C943E0068
:100020000C943E000C943E000C943E000C943E0058
:100030000C9497000C943E000C943E000C943E00EF
:100040000C943E000C943E000C943E000C943E0038
:100050000C943E000C943E000C943E000C943E0028
:100060000C943E000C943E0011241FBECFEFD8E04C
:10007000DEBFCDBF0E9459000C94BB000C94000061
:10008000FC01408121E030E002C0220F331F6A955D
:10009000E2F7242B20830895FC01908121E030E0D9
:1000A00002C0220F331F6A95E2F72095292320838F
:1000B000089564E084E290E00E94400064E085E2FC
:1000C00090E00E944C0065E084E290E00E944000D5
:1000D00065E085E290E00E944C0063E084E290E0FD
:1000E0000E94400063E085E290E00E944C0062E0E4
:1000F00084E290E00E944000E0E8F0E080818362CA
:10010000808380818F7E8083E1E8F0E080818A6057
:10011000808380818A7E808310928B0010928A0077
:10012000EFE6F0E08081846080837894FFCF1F92B7
:100130000F920FB60F9211242F938F939F93EF93EB
:10014000FF93EAE8F0E080819181019691838083BA
:10015000808191818F3F934021F410928B00109207
:100160008A00FF91EF919F918F912F910F900FBE79
:0A0170000F901F901895F894FFCF30
:00000001FF
