:100000000C9434000C9451000C9451000C94510049
:100010000C9451000C9451000C9451000C9451001C
:100020000C9451000C9451000C9451000C9451000C
:100030000C9451000C9444010C9451000C94510008
:100040000C9451000C9451000C9478020C94A6026C
:100050000C9451000C9459010C9451000C945100D3
:100060000C9451000C94510011241FBECFEFD8E026
:10007000DEBFCDBF11E0A0E0B1E0E8E8F6E002C0ED
:1000800005900D92A438B107D9F722E0A4E8B1E0B9
:1000900001C01D92A633B207E1F70E94F6000C944E
:1000A00042030C940000299A85E08A95F1F700003C
:1000B00029980895CF93C82F662311F0289A01C07C
:1000C0002898549A559A569A579A5F985E985D98D0
:1000D0005C98CC230CF45F9AC6FD5E9AC5FD5D9AD0
:1000E000C4FD5C9A0E9453005F985E985D985C988E
:1000F000C3FD5F9AC2FD5E9AC1FD5D9AC0FD5C9A28
:100100000E9453005C9A5D9A5E9A5F9A87EB9BE02F
:100110000197F1F700C00000CF91089560E00E94C0
:100120005A000895611104C080580E948E000895FD
:1001300080540E948E00089581E00E948E000895F0
:1001400061E00E945A000895CF93DF93EC0121965D
:10015000FC018081882329F00E94A00089918111EF
:10016000FBCFDF91CF910895CF93C82F209A559A56
:10017000219A549A559A569A579A8FEF99EF019768
:10018000F1F700C000005D9A5C9A0E9453008FE175
:100190009EE40197F1F700C000000E9453008FEF2A
:1001A00090E00197F1F700C000000E9453008FEF2C
:1001B00090E00197F1F700C000005C980E945300A6
:1001C0008FEF90E00197F1F700C0000088E20E94F5
:1001D0008E0088E00E948E000E949C0086E00E94B3
:1001E0008E008C2F0E948E00CF9108958CE00E948B
:1001F000B40060E080E00E94920080E091E00E9404
:10020000A40061E082E00E94920087E091E00E94F9
:10021000A40060E08EE00E9492008FE40E94A000A3
:1002200060E08FE00E94920085E40E94A000ECE76D
:10023000F0E080818064808380818F7780838081FB
:10024000807F8083EAE7F0E080818068808380811E
:1002500088608083808187608083E1E8F0E080812E
:100260008B7F8083808183608083EFE6F0E08081F4
:100270008160808387E690E00E94D0028CE091E06C
:100280000E94FE027894FFCF1F920F920FB60F923A
:1002900011248F93EF93FF93EAE7F0E0808180646D
:1002A0008083FF91EF918F910F900FBE0F901F9061
:1002B00018951F920F920FB60F9211242F933F9310
:1002C0004F935F936F937F938F939F93AF93BF935E
:1002D000EF93FF93E8E7F0E08081918190939001A4
:1002E00080938F018081918161E087E00E9492007C
:1002F00080918F0190919001009749F480E391E003
:100300000E94A4008BE291E00E94FE0235C0853677
:10031000910549F48BE391E00E94A40086E391E00B
:100320000E94FE0229C0853F910549F483E491E0D3
:100330000E94A4008EE391E00E94FE021DC082395B
:1003400021E0920749F48DE491E00E94A40088E442
:1003500091E00E94FE0210C08A38924049F487E57D
:1003600091E00E94A40082E591E00E94FE0204C098
:100370008EE591E00E94A40080918E0181708093AF
:100380008E0180918F0190919001883F23E0920728
:10039000C8F060E086E00E94920080E691E00E9452
:1003A000A40060E08AE00E94920081E691E00E9451
:1003B000A40061E08EE00E94920082E691E00E943B
:1003C000A4004CC04AE064E871E00E940D0360E0C4
:1003D00086E00E94920084E891E00E94A40085E6F5
:1003E00091E00E94FE0284E891E00E94FE0282E613
:1003F00091E00E94FE0220919001822F86958695C1
:1004000090E09C01220F331F220F331F820F931F96
:100410009093900180938F014AE064E871E00E941C
:100420000D0384E891E00E94FE028FE691E00E94B5
:10043000FE028091780090917900909390018093D2
:100440008F0140E164E871E00E940D0360E08AE002
:100450000E94920084E891E00E94A40080918F01A4
:1004600090919001873F934048F580918E018111D2
:1004700013C061E08EE00E94920080E30E94A00021
:1004800061E08FE00E94920081E30E94A00083E778
:1004900091E00E94FE0212C061E08EE00E94920094
:1004A00081E30E94A00061E08FE00E94920080E35F
:1004B0000E94A0008BE791E00E94FE02EAE7F0E0D4
:1004C00080818F7B80831092790010927800FF9159
:1004D000EF91BF91AF919F918F917F916F915F91BC
:1004E0004F913F912F910F900FBE0F901F90189535
:1004F0001F920F920FB60F9211242F938F939F93F9
:10050000EF93FF938091C0002091C6008C71E09121
:100510009301EF5FEF7790919201E91739F0E09343
:100520009301F0E0EA56FE4F208301C082E09091F3
:100530009101892B80939101FF91EF919F918F9170
:100540002F910F900FBE0F901F9018951F920F9232
:100550000FB60F9211248F939F93EF93FF93909177
:10056000950180919401981769F0E0919401EF5FF3
:10057000EF71E0939401F0E0EA5EFD4F808180939B
:10058000C60005C0E1ECF0E080818F7D8083FF91A3
:10059000EF919F918F910F900FBE0F901F90189524
:1005A0001092950110929401109293011092920171
:1005B00099231CF422E02093C00090789093C5000A
:1005C0008093C40088E98093C10086E08093C200D4
:1005D0000895209195012F5F2F7190919401291713
:1005E000E1F3E22FF0E0EA5EFD4F80832093950176
:1005F000E1ECF0E08081806280830895CF93DF9307
:10060000EC018881882331F021960E94E9028991CA
:100610008111FBCFDF91CF910895BB274A3031F490
:10062000992322F4BDE2909581959F4F0C94190374
:10063000BB27FB015527AA27880F991FAA1FA417BC
:1006400010F0A41B83955051B9F7A05DAA3308F0B0
:10065000A95DA193009779F7B111B1931192CB01E4
:100660000C943203DC01FC01672F71917723E1F7D1
:10067000329704C07C916D9370836291AE17BF076F
:08068000C8F30895F894FFCFC0
:1006880076616C75653A006B65793A0050617269FC
:1006980074613A202020202020202020202053751B
:1006A80064E120204C696368E10A004B65793A20CF
:1006B8005269676874004B65793A205570004B653C
:1006C800793A20446F776E004B65793A204C65661D
:1006D80074004B65793A2053656C6563740020207B
:1006E8002020202000202056616C75653A200020CB
:1006F8006D56002020302020310A00202031202093
:04070800300A0000B3
:00000001FF
