S00E000030362D6C63642E7372656350
S11300000C9434000C9451000C9451000C94510045
S11300100C9451000C9451000C9451000C94510018
S11300200C9451000C9493010C9451000C945100C5
S11300300C9451000C9453010C9451000C945100F5
S11300400C945D010C9451000C9451000C945100DB
S11300500C9451000C9451000C9451000C945100D8
S11300600C9451000C94510011241FBECFEFD8E022
S1130070DEBFCDBF11E0A0E0B1E0E0E7F5E002C0F3
S113008005900D92A234B107D9F721E0A2E4B1E0C2
S113009001C01D92A634B207E1F70E94FA000C9445
S11300A0B6020C940000299A85E08A95F1F70000C5
S11300B029980895CF93C82F662311F0289A01C078
S11300C02898549A559A569A579A5F985E985D98CC
S11300D05C98CC230CF45F9AC6FD5E9AC5FD5D9ACC
S11300E0C4FD5C9A0E9453005F985E985D985C988A
S11300F0C3FD5F9AC2FD5E9AC1FD5D9AC0FD5C9A24
S11301000E9453005C9A5D9A5E9A5F9A87EB9BE02B
S11301100197F1F700C00000CF91089560E00E94BC
S11301205A00089561E00E945A000895611104C0C4
S113013080580E948E00089580540E948E00089575
S113014081E00E948E00089561E00E945A000895A3
S1130150CF93DF93EC012196FC018081882329F061
S11301600E94A40089918111FBCFDF91CF91089562
S1130170CF93C82F209A559A219A549A559A569AF1
S1130180579A8FEF99EF0197F1F700C000005D9A3D
S11301905C9A0E9453008FE19EE40197F1F700C03E
S11301A000000E9453008FEF90E00197F1F700C028
S11301B000000E9453008FEF90E00197F1F700C018
S11301C000005C980E9453008FEF90E00197F1F7D4
S11301D000C0000088E20E948E0088E00E948E0029
S11301E00E94A00086E00E948E008C2F0E948E0048
S11301F0CF9108958CE00E94B80060E088E00E94EE
S113020096008FEF0E94A40060E089E00E949600AF
S113021081E00E94A40080E40E948E00CAE3D1E041
S113022002E411E089910E9492000C171D07D1F796
S1130230C2E3D1E00AE311E089910E9492000C1715
S11302401D07D1F7C2E0D1E00FE211E089910E94CD
S113025092000C171D07D1F780E80E948E00E1EB95
S1130260F0E0808187608083E0E7F0E08081816056
S1130270808385B58D7F85BD85B5856085BDEEE6BA
S1130280F0E0808181608083E1E8F0E080818B7F11
S11302908083808183608083EFE6F0E080818160E9
S11302A080837894FFCF1F920F920FB60F92112480
S11302B00F900FBE0F901F9018951F920F920FB6BC
S11302C00F9211242F933F934F935F936F937F93D8
S11302D08F939F93AF93BF93EF93FF9361E08091CC
S11302E001010E949600809100010E94A400809167
S11302F000018F5F883018F48093000103C082E00E
S113030080930001FF91EF91BF91AF919F918F91E5
S11303107F916F915F914F913F912F910F900FBEFD
S11303200F901F9018951F920F920FB60F921124E1
S11303302F933F934F935F936F937F938F939F93E9
S1130340AF93BF93EF93FF93CF93DF9300D0CDB7D9
S1130350DEB780E290E29A838983809145018F5FC2
S1130360863018F480934501B7C0109245018091FE
S113037044018F5F80934401909101019F5F9093AA
S113038001018A30D8F01092440181E08093010188
S11303900E94A000809143018F5F8C3318F48093F6
S11303A043010CC010924301809142018F5F8C3352
S11303B018F48093420102C01092420180914401DA
S11303C04AE0BE016F5F7F4F90E00E94810260E0CF
S11303D087E00E949600CE0101960E94A8008091B9
S11303E043018A30C8F460E085E00E949600809161
S11303F043014AE0BE016F5F7F4F90E00E9481029B
S1130400CE0101960E94A80060E084E00E9496005C
S113041080E30E94A40011C060E084E00E94960082
S1130420809143014AE0BE016F5F7F4F90E00E94DC
S11304308102CE0101960E94A800809142018A3077
S1130440C8F460E082E00E949600809142014AE094
S1130450BE016F5F7F4F90E00E948102CE01019642
S11304600E94A80060E081E00E94960080E30E9460
S1130470A40011C060E081E00E94960080914201D6
S11304804AE0BE016F5F7F4F90E00E948102CE017F
S113049001960E94A800809143014AE0BE016F5F6B
S11304A07F4F889FC00111240E94810260E08BE08D
S11304B00E949600CE0101960E94A80060E083E0AD
S11304C00E9496008AE30E94A40060E086E00E94F5
S11304D096008EE20E94A4000F900F90DF91CF91BE
S11304E0FF91EF91BF91AF919F918F917F916F9108
S11304F05F914F913F912F910F900FBE0F901F90DE
S11305001895BB274A3031F4992322F4BDE2909523
S113051081959F4F0C948D02BB27FB015527AA2779
S1130520880F991FAA1FA41710F0A41B839550517C
S1130530B9F7A05DAA3308F0A95DA193009779F7F4
S1130540B111B1931192CB010C94A602DC01FC0110
S1130550672F71917723E1F7329704C07C916D93F3
S113056070836291AE17BF07C8F30895F894FFCF64
S11305700201000000000000000010101010101014
S1130580101018181818181818181C1C1C1C1C1CDF
S11305901C1C1E1E1E1E1E1E1E1E1F1F1F1F1F1F75
S11305A01F1F1818181F1F181818070E1C181C0EC8
S10505B007033B
S9030000FC
